:100000003FC059C058C057C056C055C054C053C057
:1000100052C0A3C250C04FC04EC04DC04CC04BC018
:100020004AC049C048C00000000037003400310019
:1000300000000000380035003200000000003600EB
:100040003300300004040404040404040202020225
:10005000020203030303030301020408102040808B
:100060000102040810200102040810200000000012
:100070000000000000030405000000000000000074
:1000800011241FBECFE5D4E0DEBFCDBF10E0A0E657
:10009000B0E0EEE2F6E002C005900D92AE36B10798
:1000A000D9F710E0AEE6B0E001C01D92A737B10766
:1000B000E1F747D2BAC2A4CFCF92DF92EF92FF927C
:1000C0000F931F93CF93DF938091600000D26C0158
:1000D00080916200FCD17C0180916400F8D18C0198
:1000E00080916600F4D1EC01C114D10469F4E114EB
:1000F000F10451F40115110539F4009729F48091A8
:10010000680061E0ABD117C08091680060E0A6D1C3
:1001100081E0C816D10479F481E0E816F10459F4BD
:100120000130110541F4C130D10529F480916A00F4
:1001300061E094D116C080916A0060E08FD1C11453
:10014000D10479F481E0E816F10459F40130110585
:1001500041F4C130D10529F480916C0061E07ED179
:1001600016C080916C0060E079D181E0C816D1049E
:1001700071F4E114F10459F40130110541F4C13076
:10018000D10529F480916C0061E068D117C080919D
:100190006C0060E063D181E0C816D10479F481E09D
:1001A000E816F10459F40115110541F4C130D105E7
:1001B00029F480916C0061E051D116C080916C00EF
:1001C00060E04CD181E0C816D10471F481E0E816FA
:1001D000F10451F40130110539F4209729F480918C
:1001E0006C0061E03BD115C080916C0060E036D1BD
:1001F000C114D10471F4E114F10459F40130110572
:1002000041F4C130D10529F480916C0061E026D120
:1002100016C080916C0060E021D181E0C816D10445
:1002200071F481E0E816F10451F40115110539F477
:10023000209729F480916C0061E010D116C0809164
:100240006C0060E00BD1C114D10479F481E0E816B0
:10025000F10459F40115110541F4C130D10529F417
:1002600080916C0061E0FAD015C080916C0060E074
:10027000F5D081E0C816D10469F4E114F10451F419
:100280000130110539F4209729F480916C0061E068
:10029000E5D015C080916C0060E0E0D0C114D104BD
:1002A00071F481E0E816F10451F40130110539F4DC
:1002B000209729F480916C0061E0D0D016C0809125
:1002C0006C0060E0CBD081E0C816D10471F4E11479
:1002D000F10459F40115110541F4C130D10529F497
:1002E00080916C0061E0BAD015C080916C0060E034
:1002F000B5D0C114D10471F4E114F10459F401151D
:10030000110541F4C130D10529F480916C0061E000
:10031000A5D014C080916C0060E0A0D0C114D104BD
:1003200069F4E114F10451F40130110539F4209716
:1003300029F480916C0061E091D015C080916C002F
:1003400060E08CD0C114D10471F481E0E816F104AE
:1003500051F40115110539F4209729F480916C00AE
:1003600061E07CD012C080916C0060E077D081E0C9
:10037000C816D10451F4EF2841F4012B31F4CD2BF0
:1003800021F480916C0061E003C080916C0060E01A
:1003900065D0DF91CF911F910F91FF90EF90DF908B
:1003A000CF9008958091600060E019D08091620044
:1003B00060E015D08091640060E011D0809166000B
:1003C00060E00DD080916A0061E009D080916C00FE
:1003D00061E005D08091680061E001D00895CF937D
:1003E000DF93482F50E0CA01885A9F4FFC01349197
:1003F0004C5B5F4FFA018491882369F190E0880F8C
:10040000991FFC01EA5DFF4FA591B491FC01E05DED
:10041000FF4FC591D491662351F42FB7F8948C9176
:10042000932F909589238C93888189230BC0623008
:1004300061F42FB7F8948C91932F909589238C9326
:100440008881832B88832FBF06C09FB7F8948C9137
:10045000832B8C939FBFDF91CF910895482F50E05D
:10046000CA0184599F4FFC012491CA01885A9F4FA9
:10047000FC0194914C5B5F4FFA013491332331F1CD
:10048000222381F0243039F0253049F0233051F413
:100490008FB58F7702C08FB58F7D8FBD03C085B5B7
:1004A0008F7D85BDE32FF0E0EE0FFF1FE05DFF4F76
:1004B000A591B4912FB7F894662321F48C9190956F
:1004C000892302C08C91892B8C932FBF0895682FAC
:1004D00070E0CB0184599F4FFC012491CB01885AD5
:1004E0009F4FFC0144916C5B7F4FFB0194919923DA
:1004F00019F420E030E022C0222381F0243039F0CA
:10050000253049F0233051F48FB58F7702C08FB575
:100510008F7D8FBD03C085B58F7D85BD892F90E010
:10052000880F991F865C9F4FFC01A591B4918C9117
:1005300020E030E0842311F021E030E0C90108958B
:100540000895CF93DF9351D0FBDF2CDFC0E0D0E0E4
:10055000B3DD2097E9F354DDFBCF1F920F920FB666
:100560000F9211242F933F938F939F93AF93BF9339
:100570008091720090917300A0917400B091750009
:10058000309176000196A11DB11D232F2D5F2D37CF
:1005900020F02D570196A11DB11D20937600809368
:1005A000720090937300A0937400B09375008091D3
:1005B0006E0090916F00A0917000B0917100019653
:1005C000A11DB11D80936E0090936F00A0937000E9
:1005D000B0937100BF91AF919F918F913F912F91F7
:1005E0000F900FBE0F901F901895789483B782607C
:1005F00083BF83B7816083BF89B7816089BF1EBC19
:100600008EB582608EBD8EB581608EBD8FB58160E6
:100610008FBD85B5846085BD85B5806485BD329A02
:0E062000319A309A379A1AB80895F894FFCF9D
:0E062E00050006000700080009000A000B0086
:00000001FF
