:100000003FC04EC04DC04CC04BC04AC049C048C0A4
:1000100047C0F7C045C044C043C042C041C040C013
:100020003FC03EC03DC0000000003700340031003A
:1000300000000000380035003200000000003600EB
:100040003300300004040404040404040202020225
:10005000020203030303030301020408102040808B
:100060000102040810200102040810200000000012
:100070000000000000030406000000000000000073
:1000800011241FBECFE5D4E0DEBFCDBF20E0A0E647
:10009000B0E001C01D92A537B207E1F7FCD03AC22B
:1000A000AFCF843039F0863049F0833051F48FB5CA
:1000B0008F7702C08FB58F7D8FBD089585B58F7DF9
:1000C00085BD0895CF93DF93282F30E0F901E459DF
:1000D000FF4F8491F901E85AFF4FD491F901EC5B8D
:1000E000FF4FC491CC2389F08111DBDFEC2FF0E0CE
:1000F000EE0FFF1FE65CFF4FA591B491EC91ED234D
:1001000081E090E021F480E002C080E090E0DF91A7
:10011000CF9108951F93CF93DF93282F30E0F901FB
:10012000E459FF4F8491F901E85AFF4FD491F90146
:10013000EC5BFF4FC491CC23C1F0162F8111B1DFCE
:10014000EC2FF0E0EE0FFF1FE05DFF4FA591B491A3
:100150008FB7F894111105C09C91ED2FE095E9231C
:1001600002C0EC91ED2BEC938FBFDF91CF911F91EB
:100170000895CF93DF9390E0FC01E85AFF4F24915C
:10018000FC01EC5BFF4F8491882361F190E0880FC4
:10019000991FFC01EA5DFF4FC591D491FC01E05D20
:1001A000FF4FA591B491611109C09FB7F894888160
:1001B000209582238883EC912E230BC0623061F45A
:1001C0009FB7F8943881822F809583238883EC91A0
:1001D0002E2B2C939FBF06C08FB7F894E8812E2B4F
:1001E00028838FBFDF91CF9108952FB7F894609146
:1001F00065007091660080916700909168002FBF44
:1002000008951F920F920FB60F9211242F933F93D0
:100210008F939F93AF93BF938091650090916600F9
:10022000A0916700B09168003091640023E0230F33
:100230002D3720F40196A11DB11D05C026E8230F1E
:100240000296A11DB11D20936400809365009093D8
:100250006600A0936700B093680080916000909161
:100260006100A0916200B09163000196A11DB11DD3
:100270008093600090936100A0936200B09363004C
:10028000BF91AF919F918F913F912F910F900FBE92
:100290000F901F901895789483B7826083BF83B7BF
:1002A000816083BF89B7816089BF1EBC8EB58260C3
:1002B0008EBD8EB581608EBD8FB581608FBD85B5D9
:1002C000846085BD85B5806485BD329A319A309A47
:1002D000379A1AB860E082E04CDF60E083E049DFE3
:1002E00060E084E046DF60E084E043DF60E086E0D9
:1002F00040DF60E086E03DDF60E088E03ADF60E01C
:1003000089E037DF61E08AE034DF61E08BE031DFF4
:1003100061E08CE02EDF61E08DE02BDF60E08AE0C1
:10032000F9DE60E08BE0F6DE60E08CE0F3DE60E0BA
:100330008DE0F0DEC0E0D0E088E0C4DE0197D9F5C2
:1003400089E0C0DE0197B9F595C089E0BBDE892B55
:1003500009F06CC04ADF00916D0010916E00209191
:100360006F0030917000DC01CB01801B910BA20B60
:10037000B30B853F9140A105B10598F087E0A2DE5F
:10038000892B31F460E08AE0C5DE61E08DE0C2DEF9
:100390002CDF60936D0070936E0080936F009093DC
:1003A000700082E08FDE892B31F460E08CE0B2DEF9
:1003B00061E08DE0AFDE88E085DE0197B9F5C5CF5D
:1003C00089E080DE892B09F04FC00FDF00916900C2
:1003D00010916A0020916B0030916C00DC01CB0120
:1003E000801B910BA20BB30B813A9F40A105B10575
:1003F00098F082E067DE892B31F461E08BE08ADEE1
:1004000061E08DE087DEF1DE6093690070936A0041
:1004100080936B0090936C0085E054DE892B09F487
:100420005CC085E04FDE892B09F45CC088E04ADEC1
:10043000892BD1F4C5CF89E045DE019709F065C06D
:1004400085E040DE892B31F460E08AE063DE60E025
:100450008DE060DE82E036DE892B31F460E08BE0F7
:1004600059DE60E08DE056DE88E02CDE892B09F055
:100470004CC0E1CF86E026DE892B31F461E08AE0D2
:1004800049DE61E08DE046DEB0DE00917100109142
:1004900072002091730030917400DC01CB01801B4D
:1004A000910BA20BB30B81329340A105B10508F467
:1004B00043CF83E007DE892B31F461E08CE02ADE54
:1004C00061E08DE027DE91DE609371007093720031
:1004D00080937300909374002FCF82E0F3DD892B1B
:1004E00069F09FCF83E0EEDD892B09F09FCF61E0BB
:1004F0008AE010DE60E08DE00DDE98CF61E08AE0FA
:1005000009DE61E08DE006DE8CCF209709F414CF80
:0805100077DD12CFF894FFCF54
:101C000012C02BC02AC029C028C027C026C025C0AA
:101C100024C023C022C021C020C01FC01EC01DC0C0
:101C20001CC01BC01AC011241FBECFE5D4E0DEBF0C
:101C3000CDBF10E0A0E6B0E0E8EEFFE102C0059005
:101C40000D92A236B107D9F711E0A2E6B0E001C0CB
:101C50001D92AA36B107E1F74FC0D2CFEF92FF92A3
:101C60000F931F93EE24FF24870113C00894E11CF7
:101C7000F11C011D111D81E0E81682E1F8068AE7DA
:101C8000080780E0180728F0E0916200F0916300F7
:101C900009955F9BEBCF8CB1992787FD90951F919C
:101CA0000F91FF90EF9008955D9BFECF8CB9089542
:101CB000D5DF803221F484E1F7DF80E1F5DF08959C
:101CC0001F93182FCBDF803231F484E1EDDF812FB9
:101CD000EBDF80E1E9DF1F9108951F93CF93DF933E
:101CE000182FC0E0D0E002C0B9DF2196C117E0F3A1
:101CF000DF91CF911F910895CFE5D4E0DEBFCDBF36
:101D0000000010BC83E389B988E18AB986E880BD08
:101D1000BD9A1092680130E2E0E0F0E02FE088B375
:101D2000832788BBCF010197F1F7215027FFF7CF19
:101D300020E12093680192DF803381F1813399F4AF
:101D40008DDF8032C1F784E1AFDF81E4ADDF86E56E
:101D5000ABDF82E5A9DF80E2A7DF89E4A5DF83E5C9
:101D6000A3DF80E5C7C0803429F478DF8638B0F07F
:101D700075DF14C0813471F471DF803811F482E0B2
:101D80001DC1813811F481E019C1823809F015C1F3
:101D900082E114C1823421F484E19FDF89DFCBCF5B
:101DA000853411F485E0F9CF8035C1F38135B1F385
:101DB0008235A1F3853539F451DF809364004EDF1D
:101DC00080936500EBCF863519F484E086DFF5C09B
:101DD000843609F093C042DF809367013FDF809330
:101DE0006601809169018E7F8093690137DF8534B8
:101DF00029F480916901816080936901C0E0D0E09D
:101E000006E610E005C02ADFF80181938F012196D4
:101E10008091660190916701C817D907A0F31EDF72
:101E2000803209F088CF8091690180FF1FC020E0D7
:101E300030E0E6E6F0E012C0A0916400B0916500E9
:101E40008191082EC5D08091640090916500019623
:101E500090936500809364002F5F3F4F80916601EF
:101E6000909167012817390738F343C0F894E19936
:101E7000FECF1127E0916400F0916500EE0FFF1F87
:101E8000C6E6D0E0809166019091670180FF01C0B5
:101E90000196103051F422D003E000935700E895EA
:101EA0001DD001E100935700E8950990199016D0D4
:101EB00001E000935700E8951395103258F0112770
:101EC0000DD005E000935700E89508D001E100939C
:101ED0005700E8953296029739F0DBCF0091570012
:101EE00001700130D9F30895103011F00296E7CF58
:101EF000112484E1D9DE80E1D7DE1DCF843709F0DB
:101F00004BC0ACDE80936701A9DE80936601A6DE3C
:101F100090916901853421F49160909369010DC01D
:101F20009E7F909369018091640090916500880F75
:101F3000991F909365008093640090DE803209F0D1
:101F4000FACE84E1B1DEC0E0D0E01EC0809169012C
:101F500080FF07C0A0916400B091650031D0802D52
:101F600008C081FD07C0E0916400F0916500E49134
:101F70008E2F9ADE80916400909165000196909377
:101F800065008093640021968091660190916701BD
:101F9000C817D907D8F2AFCF853761F45FDE80323A
:101FA00009F0C9CE84E180DE8EE17EDE83E97CDE4D
:101FB00087E0A0CF863709F0BECE80E081DEBBCEC1
:101FC000E199FECFBFBBAEBBE09A11960DB208956A
:101FD000E199FECFBFBBAEBB0DBA11960FB6F89418
:081FE000E29AE19A0FBE089598
:021FE800800077
:0400000300001C00DD
:00000001FF
